{
  "contractName": "SupplyChain",
  "abi": [
    {
      "inputs": [],
      "payable": false,
      "stateMutability": "nonpayable",
      "type": "constructor"
    },
    {
      "constant": true,
      "inputs": [
        {
          "internalType": "uint256",
          "name": "",
          "type": "uint256"
        }
      ],
      "name": "manufacturers",
      "outputs": [
        {
          "internalType": "address",
          "name": "",
          "type": "address"
        }
      ],
      "payable": false,
      "stateMutability": "view",
      "type": "function"
    },
    {
      "constant": true,
      "inputs": [],
      "name": "owner",
      "outputs": [
        {
          "internalType": "address",
          "name": "",
          "type": "address"
        }
      ],
      "payable": false,
      "stateMutability": "view",
      "type": "function"
    },
    {
      "constant": false,
      "inputs": [
        {
          "internalType": "address",
          "name": "mfgaddress",
          "type": "address"
        },
        {
          "internalType": "bytes32",
          "name": "mfgName",
          "type": "bytes32"
        },
        {
          "internalType": "bytes32",
          "name": "mfgLocation",
          "type": "bytes32"
        }
      ],
      "name": "addManufacturer",
      "outputs": [],
      "payable": false,
      "stateMutability": "nonpayable",
      "type": "function"
    },
    {
      "constant": true,
      "inputs": [
        {
          "internalType": "address",
          "name": "mfgaddress",
          "type": "address"
        }
      ],
      "name": "verifyManufacturer",
      "outputs": [
        {
          "internalType": "address",
          "name": "",
          "type": "address"
        },
        {
          "internalType": "bytes32",
          "name": "",
          "type": "bytes32"
        },
        {
          "internalType": "bytes32",
          "name": "",
          "type": "bytes32"
        }
      ],
      "payable": false,
      "stateMutability": "view",
      "type": "function"
    },
    {
      "constant": false,
      "inputs": [
        {
          "internalType": "address",
          "name": "mfgaddress",
          "type": "address"
        },
        {
          "internalType": "bytes32",
          "name": "mfgName",
          "type": "bytes32"
        },
        {
          "internalType": "bytes32",
          "name": "mfgLocation",
          "type": "bytes32"
        }
      ],
      "name": "updateManufacturer",
      "outputs": [],
      "payable": false,
      "stateMutability": "nonpayable",
      "type": "function"
    }
  ],
  "bytecode": "0x608060405234801561001057600080fd5b50336000806101000a81548173ffffffffffffffffffffffffffffffffffffffff021916908373ffffffffffffffffffffffffffffffffffffffff160217905550610733806100606000396000f3fe608060405234801561001057600080fd5b50600436106100575760003560e01c8063762885831461005c5780638da5cb5b146100b457806390175af1146100fe578063d64a3d8b1461016c578063fff58448146101fe575b600080fd5b6100b26004803603606081101561007257600080fd5b81019080803573ffffffffffffffffffffffffffffffffffffffff1690602001909291908035906020019092919080359060200190929190505050610256565b005b6100bc610429565b604051808273ffffffffffffffffffffffffffffffffffffffff1673ffffffffffffffffffffffffffffffffffffffff16815260200191505060405180910390f35b61012a6004803603602081101561011457600080fd5b810190808035906020019092919050505061044e565b604051808273ffffffffffffffffffffffffffffffffffffffff1673ffffffffffffffffffffffffffffffffffffffff16815260200191505060405180910390f35b6101ae6004803603602081101561018257600080fd5b81019080803573ffffffffffffffffffffffffffffffffffffffff16906020019092919050505061048a565b604051808473ffffffffffffffffffffffffffffffffffffffff1673ffffffffffffffffffffffffffffffffffffffff168152602001838152602001828152602001935050505060405180910390f35b6102546004803603606081101561021457600080fd5b81019080803573ffffffffffffffffffffffffffffffffffffffff1690602001909291908035906020019092919080359060200190929190505050610585565b005b6000809054906101000a900473ffffffffffffffffffffffffffffffffffffffff1673ffffffffffffffffffffffffffffffffffffffff163373ffffffffffffffffffffffffffffffffffffffff16146102af57600080fd5b82600160008573ffffffffffffffffffffffffffffffffffffffff1673ffffffffffffffffffffffffffffffffffffffff16815260200190815260200160002060000160006101000a81548173ffffffffffffffffffffffffffffffffffffffff021916908373ffffffffffffffffffffffffffffffffffffffff16021790555081600160008573ffffffffffffffffffffffffffffffffffffffff1673ffffffffffffffffffffffffffffffffffffffff1681526020019081526020016000206001018190555080600160008573ffffffffffffffffffffffffffffffffffffffff1673ffffffffffffffffffffffffffffffffffffffff1681526020019081526020016000206002018190555060028390806001815401808255809150509060018203906000526020600020016000909192909190916101000a81548173ffffffffffffffffffffffffffffffffffffffff021916908373ffffffffffffffffffffffffffffffffffffffff16021790555050505050565b6000809054906101000a900473ffffffffffffffffffffffffffffffffffffffff1681565b6002818154811061045b57fe5b906000526020600020016000915054906101000a900473ffffffffffffffffffffffffffffffffffffffff1681565b6000806000600160008573ffffffffffffffffffffffffffffffffffffffff1673ffffffffffffffffffffffffffffffffffffffff16815260200190815260200160002060000160009054906101000a900473ffffffffffffffffffffffffffffffffffffffff16600160008673ffffffffffffffffffffffffffffffffffffffff1673ffffffffffffffffffffffffffffffffffffffff16815260200190815260200160002060010154600160008773ffffffffffffffffffffffffffffffffffffffff1673ffffffffffffffffffffffffffffffffffffffff168152602001908152602001600020600201549250925092509193909250565b6000809054906101000a900473ffffffffffffffffffffffffffffffffffffffff1673ffffffffffffffffffffffffffffffffffffffff163373ffffffffffffffffffffffffffffffffffffffff16146105de57600080fd5b60008090505b6002805490508110156106f8578373ffffffffffffffffffffffffffffffffffffffff166002828154811061061557fe5b9060005260206000200160009054906101000a900473ffffffffffffffffffffffffffffffffffffffff1673ffffffffffffffffffffffffffffffffffffffff1614156106eb5782600160008673ffffffffffffffffffffffffffffffffffffffff1673ffffffffffffffffffffffffffffffffffffffff1681526020019081526020016000206001018190555081600160008673ffffffffffffffffffffffffffffffffffffffff1673ffffffffffffffffffffffffffffffffffffffff168152602001908152602001600020600201819055505b80806001019150506105e4565b5050505056fea265627a7a72315820cfc6e813ee61f5bc0ebeb1811e80909059ab0d1f1240952b9a08a16ea6b58f4164736f6c63430005100032",
  "source": "pragma solidity 0.5.16;\ncontract SupplyChain{\naddress public owner;\nconstructor() public{\n\towner = msg.sender;\n}\nmodifier onlyOwner() {\n  require(msg.sender == owner);\n  _;\n}\nstruct manufacturer{\n    address mfgaddress;\n    bytes32 mfgName;\n    bytes32 mfgLocation;\n}\nmapping(address=>manufacturer) manufacturerDetails;\naddress[] public manufacturers;\nfunction addManufacturer(address mfgaddress,bytes32 mfgName,bytes32 mfgLocation) public onlyOwner(){\n        manufacturerDetails[mfgaddress].mfgaddress = mfgaddress;\n        manufacturerDetails[mfgaddress].mfgName = mfgName;\n        manufacturerDetails[mfgaddress].mfgLocation = mfgLocation;\n        manufacturers.push(mfgaddress);\n    }\n    function verifyManufacturer(address mfgaddress) view public returns(address,bytes32, bytes32){\n        return(manufacturerDetails[mfgaddress].mfgaddress,manufacturerDetails[mfgaddress].mfgName, manufacturerDetails[mfgaddress].mfgLocation);\n    }\n     function updateManufacturer(address mfgaddress,bytes32 mfgName,bytes32 mfgLocation) public onlyOwner(){\n        for(uint i=0;i<manufacturers.length;i++){\n            if(manufacturers[i] == mfgaddress){\n                manufacturerDetails[mfgaddress].mfgName = mfgName;\n                manufacturerDetails[mfgaddress].mfgLocation = mfgLocation;\n                \n            }\n        }\n    }\n}",
  "sourcePath": "/home/rajesh/Desktop/Supply-chain-management/blockchain/contracts/SupplyChain.sol",
  "compiler": {
    "name": "solc",
    "version": "0.5.16+commit.9c3226ce.Emscripten.clang"
  },
  "schemaVersion": "3.2.0",
  "updatedAt": "2020-08-07T06:53:21.015Z",
  "networkType": "ethereum",
  "devdoc": {
    "methods": {}
  },
  "userdoc": {
    "methods": {}
  }
}